{
  "_format": "hh-sol-artifact-1",
  "contractName": "Timeline",
  "sourceName": "contracts/Timeline.sol",
  "abi": [
    {
      "inputs": [
        {
          "internalType": "address",
          "name": "verifier",
          "type": "address"
        }
      ],
      "stateMutability": "nonpayable",
      "type": "constructor"
    },
    {
      "inputs": [],
      "name": "baseUltraVerifier",
      "outputs": [
        {
          "internalType": "contract BaseUltraVerifier",
          "name": "",
          "type": "address"
        }
      ],
      "stateMutability": "view",
      "type": "function"
    },
    {
      "inputs": [
        {
          "internalType": "uint256",
          "name": "_postId",
          "type": "uint256"
        },
        {
          "internalType": "string",
          "name": "_content",
          "type": "string"
        },
        {
          "internalType": "bytes",
          "name": "_proof",
          "type": "bytes"
        },
        {
          "internalType": "bytes32[]",
          "name": "_publicInputs",
          "type": "bytes32[]"
        }
      ],
      "name": "commentOnPost",
      "outputs": [],
      "stateMutability": "nonpayable",
      "type": "function"
    },
    {
      "inputs": [
        {
          "internalType": "uint256",
          "name": "",
          "type": "uint256"
        },
        {
          "internalType": "uint256",
          "name": "",
          "type": "uint256"
        }
      ],
      "name": "comments",
      "outputs": [
        {
          "internalType": "string",
          "name": "content",
          "type": "string"
        },
        {
          "internalType": "address",
          "name": "author",
          "type": "address"
        },
        {
          "internalType": "bool",
          "name": "positive",
          "type": "bool"
        }
      ],
      "stateMutability": "view",
      "type": "function"
    },
    {
      "inputs": [
        {
          "internalType": "bytes",
          "name": "_proof",
          "type": "bytes"
        },
        {
          "internalType": "bytes32[]",
          "name": "_publicInputs",
          "type": "bytes32[]"
        }
      ],
      "name": "createPost",
      "outputs": [],
      "stateMutability": "nonpayable",
      "type": "function"
    },
    {
      "inputs": [
        {
          "internalType": "uint256",
          "name": "_postId",
          "type": "uint256"
        },
        {
          "internalType": "uint256",
          "name": "_commentId",
          "type": "uint256"
        }
      ],
      "name": "getComment",
      "outputs": [
        {
          "internalType": "string",
          "name": "",
          "type": "string"
        },
        {
          "internalType": "address",
          "name": "",
          "type": "address"
        }
      ],
      "stateMutability": "view",
      "type": "function"
    },
    {
      "inputs": [
        {
          "internalType": "uint256",
          "name": "_postId",
          "type": "uint256"
        }
      ],
      "name": "getPost",
      "outputs": [
        {
          "internalType": "bytes32[]",
          "name": "",
          "type": "bytes32[]"
        },
        {
          "internalType": "address",
          "name": "",
          "type": "address"
        },
        {
          "internalType": "uint256",
          "name": "",
          "type": "uint256"
        },
        {
          "internalType": "uint256",
          "name": "",
          "type": "uint256"
        },
        {
          "internalType": "bytes32",
          "name": "",
          "type": "bytes32"
        }
      ],
      "stateMutability": "view",
      "type": "function"
    },
    {
      "inputs": [
        {
          "internalType": "address",
          "name": "_user",
          "type": "address"
        }
      ],
      "name": "getUserProfile",
      "outputs": [
        {
          "internalType": "string",
          "name": "",
          "type": "string"
        },
        {
          "internalType": "string",
          "name": "",
          "type": "string"
        }
      ],
      "stateMutability": "view",
      "type": "function"
    },
    {
      "inputs": [
        {
          "internalType": "uint256",
          "name": "_postId",
          "type": "uint256"
        },
        {
          "internalType": "address",
          "name": "_user",
          "type": "address"
        }
      ],
      "name": "isLikedBy",
      "outputs": [
        {
          "internalType": "bool",
          "name": "",
          "type": "bool"
        }
      ],
      "stateMutability": "view",
      "type": "function"
    },
    {
      "inputs": [
        {
          "internalType": "uint256",
          "name": "_postId",
          "type": "uint256"
        }
      ],
      "name": "likePost",
      "outputs": [],
      "stateMutability": "nonpayable",
      "type": "function"
    },
    {
      "inputs": [
        {
          "internalType": "uint256",
          "name": "",
          "type": "uint256"
        },
        {
          "internalType": "address",
          "name": "",
          "type": "address"
        }
      ],
      "name": "likedBy",
      "outputs": [
        {
          "internalType": "bool",
          "name": "",
          "type": "bool"
        }
      ],
      "stateMutability": "view",
      "type": "function"
    },
    {
      "inputs": [
        {
          "internalType": "uint256",
          "name": "",
          "type": "uint256"
        }
      ],
      "name": "posts",
      "outputs": [
        {
          "internalType": "address",
          "name": "author",
          "type": "address"
        },
        {
          "internalType": "uint256",
          "name": "likes",
          "type": "uint256"
        },
        {
          "internalType": "uint256",
          "name": "commentsCount",
          "type": "uint256"
        },
        {
          "internalType": "bytes32",
          "name": "positive",
          "type": "bytes32"
        },
        {
          "internalType": "bytes32",
          "name": "hash",
          "type": "bytes32"
        },
        {
          "internalType": "bytes",
          "name": "proof",
          "type": "bytes"
        }
      ],
      "stateMutability": "view",
      "type": "function"
    },
    {
      "inputs": [],
      "name": "postsCount",
      "outputs": [
        {
          "internalType": "uint256",
          "name": "",
          "type": "uint256"
        }
      ],
      "stateMutability": "view",
      "type": "function"
    },
    {
      "inputs": [
        {
          "internalType": "address",
          "name": "",
          "type": "address"
        }
      ],
      "name": "profiles",
      "outputs": [
        {
          "internalType": "string",
          "name": "username",
          "type": "string"
        },
        {
          "internalType": "string",
          "name": "bio",
          "type": "string"
        }
      ],
      "stateMutability": "view",
      "type": "function"
    },
    {
      "inputs": [
        {
          "internalType": "string",
          "name": "_username",
          "type": "string"
        },
        {
          "internalType": "string",
          "name": "_bio",
          "type": "string"
        }
      ],
      "name": "setUserProfile",
      "outputs": [],
      "stateMutability": "nonpayable",
      "type": "function"
    },
    {
      "inputs": [
        {
          "internalType": "uint256",
          "name": "_postId",
          "type": "uint256"
        }
      ],
      "name": "verify",
      "outputs": [
        {
          "internalType": "bool",
          "name": "",
          "type": "bool"
        }
      ],
      "stateMutability": "view",
      "type": "function"
    }
  ],
  "bytecode": "0x608060405234801561001057600080fd5b50604051611db9380380611db983398101604081905261002f91610054565b600480546001600160a01b0319166001600160a01b0392909216919091179055610084565b60006020828403121561006657600080fd5b81516001600160a01b038116811461007d57600080fd5b9392505050565b611d26806100936000396000f3fe608060405234801561001057600080fd5b50600436106100f55760003560e01c80638753367f11610097578063c0a1996311610066578063c0a199631461025b578063c4ba7af314610289578063c7c27a491461029c578063fc6c776f146102af57600080fd5b80638753367f146101f1578063987ee15614610214578063a62dafda14610235578063bbe156271461024857600080fd5b806340731c24116100d357806340731c241461015457806343ae9ea31461017857806348892753146101bd578063725009d3146101de57600080fd5b8063016363fa146100fa5780630b1e7f831461010f5780632dcbe5451461013d575b600080fd5b61010d61010836600461143a565b6102d1565b005b61012261011d36600461149e565b61031e565b6040516101349695949392919061151b565b60405180910390f35b61014660055481565b604051908152602001610134565b61016761016236600461149e565b6103f9565b60405161013495949392919061156e565b6004546101989073ffffffffffffffffffffffffffffffffffffffff1681565b60405173ffffffffffffffffffffffffffffffffffffffff9091168152602001610134565b6101d06101cb3660046115e3565b610517565b604051610134929190611605565b61010d6101ec36600461149e565b6106d1565b6102046101ff36600461149e565b610826565b6040519015158152602001610134565b610227610222366004611666565b610947565b604051610134929190611681565b61010d610243366004611736565b610a9d565b610227610256366004611666565b610db8565b6102046102693660046117a2565b600260209081526000928352604080842090915290825290205460ff1681565b61010d6102973660046117ce565b610ee4565b6102046102aa3660046117a2565b611175565b6102c26102bd3660046115e3565b61121d565b6040516101349392919061186c565b604080518082018252838152602080820184905233600090815260019091529190912081518190610302908261194e565b5060208201516001820190610317908261194e565b5050505050565b60006020819052908152604090206001810154600282015460038301546004840154600585015460068601805473ffffffffffffffffffffffffffffffffffffffff90961696949593949293919291610376906118ac565b80601f01602080910402602001604051908101604052809291908181526020018280546103a2906118ac565b80156103ef5780601f106103c4576101008083540402835291602001916103ef565b820191906000526020600020905b8154815290600101906020018083116103d257829003601f168201915b5050505050905086565b60606000806000806005548610610471576040517f08c379a000000000000000000000000000000000000000000000000000000000815260206004820152600f60248201527f496e76616c696420506f7374204944000000000000000000000000000000000060448201526064015b60405180910390fd5b60008681526020818152604091829020600181015460028201546003830154600484015484548751818802810188019098528088529496879673ffffffffffffffffffffffffffffffffffffffff90951695939492939192909187918301828280156104fc57602002820191906000526020600020905b8154815260200190600101908083116104e8575b50505050509450955095509550955095505091939590929450565b606060006005548410610586576040517f08c379a000000000000000000000000000000000000000000000000000000000815260206004820152600f60248201527f496e76616c696420506f737420494400000000000000000000000000000000006044820152606401610468565b6000848152602081905260409020600301548310610600576040517f08c379a000000000000000000000000000000000000000000000000000000000815260206004820152601260248201527f496e76616c696420436f6d6d656e7420494400000000000000000000000000006044820152606401610468565b6000848152600360209081526040808320868452909152902060018101548154829173ffffffffffffffffffffffffffffffffffffffff16908290610644906118ac565b80601f0160208091040260200160405190810160405280929190818152602001828054610670906118ac565b80156106bd5780601f10610692576101008083540402835291602001916106bd565b820191906000526020600020905b8154815290600101906020018083116106a057829003601f168201915b5050505050915092509250505b9250929050565b600554811061073c576040517f08c379a000000000000000000000000000000000000000000000000000000000815260206004820152600f60248201527f496e76616c696420506f737420494400000000000000000000000000000000006044820152606401610468565b600081815260026020908152604080832033845290915290205460ff16156107c0576040517f08c379a000000000000000000000000000000000000000000000000000000000815260206004820152600d60248201527f416c7265616479206c696b6564000000000000000000000000000000000000006044820152606401610468565b60008181526020819052604081206002018054916107dd83611a97565b90915550506000908152600260209081526040808320338452909152902080547fffffffffffffffffffffffffffffffffffffffffffffffffffffffffffffff00166001179055565b60006005548210610893576040517f08c379a000000000000000000000000000000000000000000000000000000000815260206004820152600f60248201527f496e76616c696420506f737420494400000000000000000000000000000000006044820152606401610468565b600082815260208190526040908190206004805492517fea50d0e4000000000000000000000000000000000000000000000000000000008152919273ffffffffffffffffffffffffffffffffffffffff169163ea50d0e4916108ff916006860191600787019101611b0f565b602060405180830381865afa15801561091c573d6000803e3d6000fd5b505050506040513d601f19601f820116820180604052508101906109409190611bc3565b9392505050565b73ffffffffffffffffffffffffffffffffffffffff81166000908152600160208190526040909120805460609283929182918201908290610987906118ac565b80601f01602080910402602001604051908101604052809291908181526020018280546109b3906118ac565b8015610a005780601f106109d557610100808354040283529160200191610a00565b820191906000526020600020905b8154815290600101906020018083116109e357829003601f168201915b50505050509150808054610a13906118ac565b80601f0160208091040260200160405190810160405280929190818152602001828054610a3f906118ac565b8015610a8c5780601f10610a6157610100808354040283529160200191610a8c565b820191906000526020600020905b815481529060010190602001808311610a6f57829003601f168201915b505050505090509250925050915091565b600480546040517fea50d0e400000000000000000000000000000000000000000000000000000000815273ffffffffffffffffffffffffffffffffffffffff9091169163ea50d0e491610af891889188918891889101611be5565b602060405180830381865afa158015610b15573d6000803e3d6000fd5b505050506040513d601f19601f82011682018060405250810190610b399190611bc3565b610b9f576040517f08c379a000000000000000000000000000000000000000000000000000000000815260206004820152600b60248201527f57726f6e672070726f6f660000000000000000000000000000000000000000006044820152606401610468565b6040805161010081019091528083600084610bbb600282611c80565b92610bc893929190611c93565b8080602002602001604051908101604052809392919081815260200183836020028082843760009201829052509385525050336020840152506040820181905260608201526080018383610c1d600282611c80565b818110610c2c57610c2c611cc1565b60209081029290920135835250018383610c47600182611c80565b818110610c5657610c56611cc1565b90506020020135815260200185858080601f0160208091040260200160405190810160405280939291908181526020018383808284376000920191909152505050908252506040805160208581028281018201909352858252928301929091869186918291850190849080828437600092018290525093909452505060055481526020818152604090912083518051919350610cf6928492910190611300565b5060208201516001820180547fffffffffffffffffffffffff00000000000000000000000000000000000000001673ffffffffffffffffffffffffffffffffffffffff90921691909117905560408201516002820155606082015160038201556080820151600482015560a0820151600582015560c08201516006820190610d7e908261194e565b5060e08201518051610d9a916007840191602090910190611300565b50506005805491506000610dad83611a97565b919050555050505050565b600160205260009081526040902080548190610dd3906118ac565b80601f0160208091040260200160405190810160405280929190818152602001828054610dff906118ac565b8015610e4c5780601f10610e2157610100808354040283529160200191610e4c565b820191906000526020600020905b815481529060010190602001808311610e2f57829003601f168201915b505050505090806001018054610e61906118ac565b80601f0160208091040260200160405190810160405280929190818152602001828054610e8d906118ac565b8015610eda5780601f10610eaf57610100808354040283529160200191610eda565b820191906000526020600020905b815481529060010190602001808311610ebd57829003601f168201915b5050505050905082565b6005548610610f4f576040517f08c379a000000000000000000000000000000000000000000000000000000000815260206004820152600f60248201527f496e76616c696420506f737420494400000000000000000000000000000000006044820152606401610468565b600480546040517fea50d0e400000000000000000000000000000000000000000000000000000000815273ffffffffffffffffffffffffffffffffffffffff9091169163ea50d0e491610faa91889188918891889101611be5565b602060405180830381865afa158015610fc7573d6000803e3d6000fd5b505050506040513d601f19601f82011682018060405250810190610feb9190611bc3565b611051576040517f08c379a000000000000000000000000000000000000000000000000000000000815260206004820152600b60248201527f57726f6e672070726f6f660000000000000000000000000000000000000000006044820152606401610468565b604080516060810182528681523360208201529081017f31000000000000000000000000000000000000000000000000000000000000008484600181811061109b5761109b611cc1565b602090810292909201359290921490925250600088815260038083526040808320838552818420909201548352925220815181906110d9908261194e565b5060208281015160019092018054604094850151151574010000000000000000000000000000000000000000027fffffffffffffffffffffff00000000000000000000000000000000000000000090911673ffffffffffffffffffffffffffffffffffffffff909416939093179290921790915560008881529081905290812060030180549161116883611a97565b9190505550505050505050565b600060055483106111e2576040517f08c379a000000000000000000000000000000000000000000000000000000000815260206004820152600f60248201527f496e76616c696420506f737420494400000000000000000000000000000000006044820152606401610468565b50600082815260026020908152604080832073ffffffffffffffffffffffffffffffffffffffff8516845290915290205460ff165b92915050565b6003602090815260009283526040808420909152908252902080548190611243906118ac565b80601f016020809104026020016040519081016040528092919081815260200182805461126f906118ac565b80156112bc5780601f10611291576101008083540402835291602001916112bc565b820191906000526020600020905b81548152906001019060200180831161129f57829003601f168201915b5050506001909301549192505073ffffffffffffffffffffffffffffffffffffffff81169060ff740100000000000000000000000000000000000000009091041683565b82805482825590600052602060002090810192821561133b579160200282015b8281111561133b578251825591602001919060010190611320565b5061134792915061134b565b5090565b5b80821115611347576000815560010161134c565b7f4e487b7100000000000000000000000000000000000000000000000000000000600052604160045260246000fd5b600082601f8301126113a057600080fd5b813567ffffffffffffffff808211156113bb576113bb611360565b604051601f83017fffffffffffffffffffffffffffffffffffffffffffffffffffffffffffffffe0908116603f0116810190828211818310171561140157611401611360565b8160405283815286602085880101111561141a57600080fd5b836020870160208301376000602085830101528094505050505092915050565b6000806040838503121561144d57600080fd5b823567ffffffffffffffff8082111561146557600080fd5b6114718683870161138f565b9350602085013591508082111561148757600080fd5b506114948582860161138f565b9150509250929050565b6000602082840312156114b057600080fd5b5035919050565b6000815180845260005b818110156114dd576020818501810151868301820152016114c1565b5060006020828601015260207fffffffffffffffffffffffffffffffffffffffffffffffffffffffffffffffe0601f83011685010191505092915050565b73ffffffffffffffffffffffffffffffffffffffff8716815285602082015284604082015283606082015282608082015260c060a0820152600061156260c08301846114b7565b98975050505050505050565b60a0808252865190820181905260009060209060c0840190828a01845b828110156115a75781518452928401929084019060010161158b565b50505073ffffffffffffffffffffffffffffffffffffffff97909716908301525060408101939093526060830191909152608090910152919050565b600080604083850312156115f657600080fd5b50508035926020909101359150565b60408152600061161860408301856114b7565b905073ffffffffffffffffffffffffffffffffffffffff831660208301529392505050565b803573ffffffffffffffffffffffffffffffffffffffff8116811461166157600080fd5b919050565b60006020828403121561167857600080fd5b6109408261163d565b60408152600061169460408301856114b7565b82810360208401526116a681856114b7565b95945050505050565b60008083601f8401126116c157600080fd5b50813567ffffffffffffffff8111156116d957600080fd5b6020830191508360208285010111156106ca57600080fd5b60008083601f84011261170357600080fd5b50813567ffffffffffffffff81111561171b57600080fd5b6020830191508360208260051b85010111156106ca57600080fd5b6000806000806040858703121561174c57600080fd5b843567ffffffffffffffff8082111561176457600080fd5b611770888389016116af565b9096509450602087013591508082111561178957600080fd5b50611796878288016116f1565b95989497509550505050565b600080604083850312156117b557600080fd5b823591506117c56020840161163d565b90509250929050565b600080600080600080608087890312156117e757600080fd5b86359550602087013567ffffffffffffffff8082111561180657600080fd5b6118128a838b0161138f565b9650604089013591508082111561182857600080fd5b6118348a838b016116af565b9096509450606089013591508082111561184d57600080fd5b5061185a89828a016116f1565b979a9699509497509295939492505050565b60608152600061187f60608301866114b7565b73ffffffffffffffffffffffffffffffffffffffff94909416602083015250901515604090910152919050565b600181811c908216806118c057607f821691505b6020821081036118f9577f4e487b7100000000000000000000000000000000000000000000000000000000600052602260045260246000fd5b50919050565b601f82111561194957600081815260208120601f850160051c810160208610156119265750805b601f850160051c820191505b8181101561194557828155600101611932565b5050505b505050565b815167ffffffffffffffff81111561196857611968611360565b61197c8161197684546118ac565b846118ff565b602080601f8311600181146119cf57600084156119995750858301515b7fffffffffffffffffffffffffffffffffffffffffffffffffffffffffffffffff600386901b1c1916600185901b178555611945565b6000858152602081207fffffffffffffffffffffffffffffffffffffffffffffffffffffffffffffffe08616915b82811015611a1c578886015182559484019460019091019084016119fd565b5085821015611a5857878501517fffffffffffffffffffffffffffffffffffffffffffffffffffffffffffffffff600388901b60f8161c191681555b5050505050600190811b01905550565b7f4e487b7100000000000000000000000000000000000000000000000000000000600052601160045260246000fd5b60007fffffffffffffffffffffffffffffffffffffffffffffffffffffffffffffffff8203611ac857611ac8611a68565b5060010190565b6000815480845260208085019450836000528060002060005b83811015611b0457815487529582019560019182019101611ae8565b509495945050505050565b604081526000808454611b21816118ac565b8060408601526060600180841660008114611b435760018114611b7b57611bac565b7fffffffffffffffffffffffffffffffffffffffffffffffffffffffffffffff008516838901528284151560051b8901019550611bac565b8960005260208060002060005b86811015611ba35781548b8201870152908401908201611b88565b8a018501975050505b505050505082810360208401526116a68185611acf565b600060208284031215611bd557600080fd5b8151801515811461094057600080fd5b604081528360408201528385606083013760006060858301015260007fffffffffffffffffffffffffffffffffffffffffffffffffffffffffffffffe0601f860116820160608382030160208401528360608201527f07ffffffffffffffffffffffffffffffffffffffffffffffffffffffffffffff841115611c6757600080fd5b8360051b80866080840137016080019695505050505050565b8181038181111561121757611217611a68565b60008085851115611ca357600080fd5b83861115611cb057600080fd5b5050600583901b0193919092039150565b7f4e487b7100000000000000000000000000000000000000000000000000000000600052603260045260246000fdfea26469706673582212209550db2519f027f499e37974e519eb9f7381e902c2cb6ffb76e05df9253ace1064736f6c63430008120033",
  "linkReferences": {},
  "deployedLinkReferences": {}
}