{
  "_format": "hh-sol-artifact-1",
  "contractName": "Timeline",
  "sourceName": "contracts/Timeline.sol",
  "abi": [
    {
      "inputs": [
        {
          "internalType": "address",
          "name": "verifier",
          "type": "address"
        }
      ],
      "stateMutability": "nonpayable",
      "type": "constructor"
    },
    {
      "inputs": [],
      "name": "baseUltraVerifier",
      "outputs": [
        {
          "internalType": "contract BaseUltraVerifier",
          "name": "",
          "type": "address"
        }
      ],
      "stateMutability": "view",
      "type": "function"
    },
    {
      "inputs": [
        {
          "internalType": "uint256",
          "name": "_postId",
          "type": "uint256"
        },
        {
          "internalType": "bytes",
          "name": "_proof",
          "type": "bytes"
        },
        {
          "internalType": "bytes32[]",
          "name": "_publicInputs",
          "type": "bytes32[]"
        }
      ],
      "name": "commentOnPost",
      "outputs": [],
      "stateMutability": "nonpayable",
      "type": "function"
    },
    {
      "inputs": [
        {
          "internalType": "uint256",
          "name": "",
          "type": "uint256"
        },
        {
          "internalType": "uint256",
          "name": "",
          "type": "uint256"
        }
      ],
      "name": "comments",
      "outputs": [
        {
          "internalType": "address",
          "name": "author",
          "type": "address"
        },
        {
          "internalType": "bytes32",
          "name": "positive",
          "type": "bytes32"
        },
        {
          "internalType": "bytes32",
          "name": "hash",
          "type": "bytes32"
        },
        {
          "internalType": "bytes",
          "name": "proof",
          "type": "bytes"
        }
      ],
      "stateMutability": "view",
      "type": "function"
    },
    {
      "inputs": [
        {
          "internalType": "bytes",
          "name": "_proof",
          "type": "bytes"
        },
        {
          "internalType": "bytes32[]",
          "name": "_publicInputs",
          "type": "bytes32[]"
        }
      ],
      "name": "createPost",
      "outputs": [],
      "stateMutability": "nonpayable",
      "type": "function"
    },
    {
      "inputs": [
        {
          "internalType": "uint256",
          "name": "_postId",
          "type": "uint256"
        },
        {
          "internalType": "uint256",
          "name": "_commentId",
          "type": "uint256"
        }
      ],
      "name": "getComment",
      "outputs": [
        {
          "internalType": "bytes32[]",
          "name": "",
          "type": "bytes32[]"
        },
        {
          "internalType": "address",
          "name": "",
          "type": "address"
        },
        {
          "internalType": "bytes32",
          "name": "",
          "type": "bytes32"
        }
      ],
      "stateMutability": "view",
      "type": "function"
    },
    {
      "inputs": [
        {
          "internalType": "uint256",
          "name": "_postId",
          "type": "uint256"
        }
      ],
      "name": "getPost",
      "outputs": [
        {
          "internalType": "bytes32[]",
          "name": "",
          "type": "bytes32[]"
        },
        {
          "internalType": "address",
          "name": "",
          "type": "address"
        },
        {
          "internalType": "uint256",
          "name": "",
          "type": "uint256"
        },
        {
          "internalType": "uint256",
          "name": "",
          "type": "uint256"
        },
        {
          "internalType": "bytes32",
          "name": "",
          "type": "bytes32"
        }
      ],
      "stateMutability": "view",
      "type": "function"
    },
    {
      "inputs": [
        {
          "internalType": "address",
          "name": "_user",
          "type": "address"
        }
      ],
      "name": "getUserProfile",
      "outputs": [
        {
          "internalType": "string",
          "name": "",
          "type": "string"
        },
        {
          "internalType": "string",
          "name": "",
          "type": "string"
        }
      ],
      "stateMutability": "view",
      "type": "function"
    },
    {
      "inputs": [
        {
          "internalType": "uint256",
          "name": "_postId",
          "type": "uint256"
        },
        {
          "internalType": "address",
          "name": "_user",
          "type": "address"
        }
      ],
      "name": "isLikedBy",
      "outputs": [
        {
          "internalType": "bool",
          "name": "",
          "type": "bool"
        }
      ],
      "stateMutability": "view",
      "type": "function"
    },
    {
      "inputs": [
        {
          "internalType": "uint256",
          "name": "_postId",
          "type": "uint256"
        }
      ],
      "name": "likePost",
      "outputs": [],
      "stateMutability": "nonpayable",
      "type": "function"
    },
    {
      "inputs": [
        {
          "internalType": "uint256",
          "name": "",
          "type": "uint256"
        },
        {
          "internalType": "address",
          "name": "",
          "type": "address"
        }
      ],
      "name": "likedBy",
      "outputs": [
        {
          "internalType": "bool",
          "name": "",
          "type": "bool"
        }
      ],
      "stateMutability": "view",
      "type": "function"
    },
    {
      "inputs": [
        {
          "internalType": "uint256",
          "name": "",
          "type": "uint256"
        }
      ],
      "name": "posts",
      "outputs": [
        {
          "internalType": "address",
          "name": "author",
          "type": "address"
        },
        {
          "internalType": "uint256",
          "name": "likes",
          "type": "uint256"
        },
        {
          "internalType": "uint256",
          "name": "commentsCount",
          "type": "uint256"
        },
        {
          "internalType": "bytes32",
          "name": "positive",
          "type": "bytes32"
        },
        {
          "internalType": "bytes32",
          "name": "hash",
          "type": "bytes32"
        },
        {
          "internalType": "bytes",
          "name": "proof",
          "type": "bytes"
        }
      ],
      "stateMutability": "view",
      "type": "function"
    },
    {
      "inputs": [],
      "name": "postsCount",
      "outputs": [
        {
          "internalType": "uint256",
          "name": "",
          "type": "uint256"
        }
      ],
      "stateMutability": "view",
      "type": "function"
    },
    {
      "inputs": [
        {
          "internalType": "address",
          "name": "",
          "type": "address"
        }
      ],
      "name": "profiles",
      "outputs": [
        {
          "internalType": "string",
          "name": "username",
          "type": "string"
        },
        {
          "internalType": "string",
          "name": "bio",
          "type": "string"
        }
      ],
      "stateMutability": "view",
      "type": "function"
    },
    {
      "inputs": [
        {
          "internalType": "string",
          "name": "_username",
          "type": "string"
        },
        {
          "internalType": "string",
          "name": "_bio",
          "type": "string"
        }
      ],
      "name": "setUserProfile",
      "outputs": [],
      "stateMutability": "nonpayable",
      "type": "function"
    },
    {
      "inputs": [
        {
          "internalType": "uint256",
          "name": "_postId",
          "type": "uint256"
        }
      ],
      "name": "verify",
      "outputs": [
        {
          "internalType": "bool",
          "name": "",
          "type": "bool"
        }
      ],
      "stateMutability": "view",
      "type": "function"
    }
  ],
  "bytecode": "0x608060405234801561001057600080fd5b50604051611e60380380611e6083398101604081905261002f91610054565b600480546001600160a01b0319166001600160a01b0392909216919091179055610084565b60006020828403121561006657600080fd5b81516001600160a01b038116811461007d57600080fd5b9392505050565b611dcd806100936000396000f3fe608060405234801561001057600080fd5b50600436106100f55760003560e01c8063725009d311610097578063bbe1562711610066578063bbe156271461025c578063c0a199631461026f578063c7c27a491461029d578063fc6c776f146102b057600080fd5b8063725009d3146101f25780638753367f14610205578063987ee15614610228578063a62dafda1461024957600080fd5b806340731c24116100d357806340731c241461015457806343ae9ea31461017857806348892753146101bd578063709be8bb146101df57600080fd5b8063016363fa146100fa5780630b1e7f831461010f5780632dcbe5451461013d575b600080fd5b61010d6101083660046114ee565b6102d3565b005b61012261011d366004611552565b610320565b604051610134969594939291906115cf565b60405180910390f35b61014660055481565b604051908152602001610134565b610167610162366004611552565b6103fb565b60405161013495949392919061165d565b6004546101989073ffffffffffffffffffffffffffffffffffffffff1681565b60405173ffffffffffffffffffffffffffffffffffffffff9091168152602001610134565b6101d06101cb3660046116aa565b610519565b604051610134939291906116cc565b61010d6101ed366004611795565b61069f565b61010d610200366004611552565b610a24565b610218610213366004611552565b610b79565b6040519015158152602001610134565b61023b610236366004611838565b610c9a565b604051610134929190611853565b61010d610257366004611881565b610df0565b61023b61026a366004611838565b61110b565b61021861027d3660046118ed565b600260209081526000928352604080842090915290825290205460ff1681565b6102186102ab3660046118ed565b611237565b6102c36102be3660046116aa565b6112df565b6040516101349493929190611919565b6040805180820182528381526020808201849052336000908152600190915291909120815181906103049082611a00565b50602082015160018201906103199082611a00565b5050505050565b60006020819052908152604090206001810154600282015460038301546004840154600585015460068601805473ffffffffffffffffffffffffffffffffffffffff909616969495939492939192916103789061195e565b80601f01602080910402602001604051908101604052809291908181526020018280546103a49061195e565b80156103f15780601f106103c6576101008083540402835291602001916103f1565b820191906000526020600020905b8154815290600101906020018083116103d457829003601f168201915b5050505050905086565b60606000806000806005548610610473576040517f08c379a000000000000000000000000000000000000000000000000000000000815260206004820152600f60248201527f496e76616c696420506f7374204944000000000000000000000000000000000060448201526064015b60405180910390fd5b60008681526020818152604091829020600181015460028201546003830154600484015484548751818802810188019098528088529496879673ffffffffffffffffffffffffffffffffffffffff90951695939492939192909187918301828280156104fe57602002820191906000526020600020905b8154815260200190600101908083116104ea575b50505050509450955095509550955095505091939590929450565b60606000806005548510610589576040517f08c379a000000000000000000000000000000000000000000000000000000000815260206004820152600f60248201527f496e76616c696420506f73742049440000000000000000000000000000000000604482015260640161046a565b6000858152602081905260409020600301548410610603576040517f08c379a000000000000000000000000000000000000000000000000000000000815260206004820152601260248201527f496e76616c696420436f6d6d656e742049440000000000000000000000000000604482015260640161046a565b60008581526003602090815260408083208784528252918290206001810154600282015482548551818602810186019096528086529294859473ffffffffffffffffffffffffffffffffffffffff9093169391929091859183018282801561068a57602002820191906000526020600020905b815481526020019060010190808311610676575b50505050509250935093509350509250925092565b600554851061070a576040517f08c379a000000000000000000000000000000000000000000000000000000000815260206004820152600f60248201527f496e76616c696420506f73742049440000000000000000000000000000000000604482015260640161046a565b600480546040517fea50d0e400000000000000000000000000000000000000000000000000000000815273ffffffffffffffffffffffffffffffffffffffff9091169163ea50d0e49161076591889188918891889101611b1a565b602060405180830381865afa158015610782573d6000803e3d6000fd5b505050506040513d601f19601f820116820180604052508101906107a69190611bb5565b61080c576040517f08c379a000000000000000000000000000000000000000000000000000000000815260206004820152600b60248201527f57726f6e672070726f6f66000000000000000000000000000000000000000000604482015260640161046a565b6040805160c081019091528083600084610827600282611c06565b9261083493929190611c19565b80806020026020016040519081016040528093929190818152602001838360200280828437600092019190915250505090825250336020820152604001838361087e600282611c06565b81811061088d5761088d611c47565b602090810292909201358352500183836108a8600182611c06565b8181106108b7576108b7611c47565b90506020020135815260200185858080601f016020809104026020016040519081016040528093929190818152602001838380828437600092019190915250505090825250604080516020858102828101820190935285825292830192909186918691829185019084908082843760009201829052509390945250508781526003602081815260408084208483528185209093015484529181529120835180519193506109689284929101906113b4565b5060208201516001820180547fffffffffffffffffffffffff00000000000000000000000000000000000000001673ffffffffffffffffffffffffffffffffffffffff9092169190911790556040820151600282015560608201516003820155608082015160048201906109dc9082611a00565b5060a082015180516109f89160058401916020909101906113b4565b5050506000858152602081905260408120600301805491610a1883611c76565b91905055505050505050565b6005548110610a8f576040517f08c379a000000000000000000000000000000000000000000000000000000000815260206004820152600f60248201527f496e76616c696420506f73742049440000000000000000000000000000000000604482015260640161046a565b600081815260026020908152604080832033845290915290205460ff1615610b13576040517f08c379a000000000000000000000000000000000000000000000000000000000815260206004820152600d60248201527f416c7265616479206c696b656400000000000000000000000000000000000000604482015260640161046a565b6000818152602081905260408120600201805491610b3083611c76565b90915550506000908152600260209081526040808320338452909152902080547fffffffffffffffffffffffffffffffffffffffffffffffffffffffffffffff00166001179055565b60006005548210610be6576040517f08c379a000000000000000000000000000000000000000000000000000000000815260206004820152600f60248201527f496e76616c696420506f73742049440000000000000000000000000000000000604482015260640161046a565b600082815260208190526040908190206004805492517fea50d0e4000000000000000000000000000000000000000000000000000000008152919273ffffffffffffffffffffffffffffffffffffffff169163ea50d0e491610c52916006860191600787019101611ce3565b602060405180830381865afa158015610c6f573d6000803e3d6000fd5b505050506040513d601f19601f82011682018060405250810190610c939190611bb5565b9392505050565b73ffffffffffffffffffffffffffffffffffffffff81166000908152600160208190526040909120805460609283929182918201908290610cda9061195e565b80601f0160208091040260200160405190810160405280929190818152602001828054610d069061195e565b8015610d535780601f10610d2857610100808354040283529160200191610d53565b820191906000526020600020905b815481529060010190602001808311610d3657829003601f168201915b50505050509150808054610d669061195e565b80601f0160208091040260200160405190810160405280929190818152602001828054610d929061195e565b8015610ddf5780601f10610db457610100808354040283529160200191610ddf565b820191906000526020600020905b815481529060010190602001808311610dc257829003601f168201915b505050505090509250925050915091565b600480546040517fea50d0e400000000000000000000000000000000000000000000000000000000815273ffffffffffffffffffffffffffffffffffffffff9091169163ea50d0e491610e4b91889188918891889101611b1a565b602060405180830381865afa158015610e68573d6000803e3d6000fd5b505050506040513d601f19601f82011682018060405250810190610e8c9190611bb5565b610ef2576040517f08c379a000000000000000000000000000000000000000000000000000000000815260206004820152600b60248201527f57726f6e672070726f6f66000000000000000000000000000000000000000000604482015260640161046a565b6040805161010081019091528083600084610f0e600282611c06565b92610f1b93929190611c19565b8080602002602001604051908101604052809392919081815260200183836020028082843760009201829052509385525050336020840152506040820181905260608201526080018383610f70600282611c06565b818110610f7f57610f7f611c47565b60209081029290920135835250018383610f9a600182611c06565b818110610fa957610fa9611c47565b90506020020135815260200185858080601f01602080910402602001604051908101604052809392919081815260200183838082843760009201919091525050509082525060408051602085810282810182019093528582529283019290918691869182918501908490808284376000920182905250939094525050600554815260208181526040909120835180519193506110499284929101906113b4565b5060208201516001820180547fffffffffffffffffffffffff00000000000000000000000000000000000000001673ffffffffffffffffffffffffffffffffffffffff90921691909117905560408201516002820155606082015160038201556080820151600482015560a0820151600582015560c082015160068201906110d19082611a00565b5060e082015180516110ed9160078401916020909101906113b4565b5050600580549150600061110083611c76565b919050555050505050565b6001602052600090815260409020805481906111269061195e565b80601f01602080910402602001604051908101604052809291908181526020018280546111529061195e565b801561119f5780601f106111745761010080835404028352916020019161119f565b820191906000526020600020905b81548152906001019060200180831161118257829003601f168201915b5050505050908060010180546111b49061195e565b80601f01602080910402602001604051908101604052809291908181526020018280546111e09061195e565b801561122d5780601f106112025761010080835404028352916020019161122d565b820191906000526020600020905b81548152906001019060200180831161121057829003601f168201915b5050505050905082565b600060055483106112a4576040517f08c379a000000000000000000000000000000000000000000000000000000000815260206004820152600f60248201527f496e76616c696420506f73742049440000000000000000000000000000000000604482015260640161046a565b50600082815260026020908152604080832073ffffffffffffffffffffffffffffffffffffffff8516845290915290205460ff165b92915050565b60036020818152600093845260408085209091529183529120600181015460028201549282015460048301805473ffffffffffffffffffffffffffffffffffffffff909316949391926113319061195e565b80601f016020809104026020016040519081016040528092919081815260200182805461135d9061195e565b80156113aa5780601f1061137f576101008083540402835291602001916113aa565b820191906000526020600020905b81548152906001019060200180831161138d57829003601f168201915b5050505050905084565b8280548282559060005260206000209081019282156113ef579160200282015b828111156113ef5782518255916020019190600101906113d4565b506113fb9291506113ff565b5090565b5b808211156113fb5760008155600101611400565b7f4e487b7100000000000000000000000000000000000000000000000000000000600052604160045260246000fd5b600082601f83011261145457600080fd5b813567ffffffffffffffff8082111561146f5761146f611414565b604051601f83017fffffffffffffffffffffffffffffffffffffffffffffffffffffffffffffffe0908116603f011681019082821181831017156114b5576114b5611414565b816040528381528660208588010111156114ce57600080fd5b836020870160208301376000602085830101528094505050505092915050565b6000806040838503121561150157600080fd5b823567ffffffffffffffff8082111561151957600080fd5b61152586838701611443565b9350602085013591508082111561153b57600080fd5b5061154885828601611443565b9150509250929050565b60006020828403121561156457600080fd5b5035919050565b6000815180845260005b8181101561159157602081850181015186830182015201611575565b5060006020828601015260207fffffffffffffffffffffffffffffffffffffffffffffffffffffffffffffffe0601f83011685010191505092915050565b73ffffffffffffffffffffffffffffffffffffffff8716815285602082015284604082015283606082015282608082015260c060a0820152600061161660c083018461156b565b98975050505050505050565b600081518084526020808501945080840160005b8381101561165257815187529582019590820190600101611636565b509495945050505050565b60a08152600061167060a0830188611622565b905073ffffffffffffffffffffffffffffffffffffffff861660208301528460408301528360608301528260808301529695505050505050565b600080604083850312156116bd57600080fd5b50508035926020909101359150565b6060815260006116df6060830186611622565b73ffffffffffffffffffffffffffffffffffffffff9490941660208301525060400152919050565b60008083601f84011261171957600080fd5b50813567ffffffffffffffff81111561173157600080fd5b60208301915083602082850101111561174957600080fd5b9250929050565b60008083601f84011261176257600080fd5b50813567ffffffffffffffff81111561177a57600080fd5b6020830191508360208260051b850101111561174957600080fd5b6000806000806000606086880312156117ad57600080fd5b85359450602086013567ffffffffffffffff808211156117cc57600080fd5b6117d889838a01611707565b909650945060408801359150808211156117f157600080fd5b506117fe88828901611750565b969995985093965092949392505050565b803573ffffffffffffffffffffffffffffffffffffffff8116811461183357600080fd5b919050565b60006020828403121561184a57600080fd5b610c938261180f565b604081526000611866604083018561156b565b8281036020840152611878818561156b565b95945050505050565b6000806000806040858703121561189757600080fd5b843567ffffffffffffffff808211156118af57600080fd5b6118bb88838901611707565b909650945060208701359150808211156118d457600080fd5b506118e187828801611750565b95989497509550505050565b6000806040838503121561190057600080fd5b823591506119106020840161180f565b90509250929050565b73ffffffffffffffffffffffffffffffffffffffff85168152836020820152826040820152608060608201526000611954608083018461156b565b9695505050505050565b600181811c9082168061197257607f821691505b6020821081036119ab577f4e487b7100000000000000000000000000000000000000000000000000000000600052602260045260246000fd5b50919050565b601f8211156119fb57600081815260208120601f850160051c810160208610156119d85750805b601f850160051c820191505b818110156119f7578281556001016119e4565b5050505b505050565b815167ffffffffffffffff811115611a1a57611a1a611414565b611a2e81611a28845461195e565b846119b1565b602080601f831160018114611a815760008415611a4b5750858301515b7fffffffffffffffffffffffffffffffffffffffffffffffffffffffffffffffff600386901b1c1916600185901b1785556119f7565b6000858152602081207fffffffffffffffffffffffffffffffffffffffffffffffffffffffffffffffe08616915b82811015611ace57888601518255948401946001909101908401611aaf565b5085821015611b0a57878501517fffffffffffffffffffffffffffffffffffffffffffffffffffffffffffffffff600388901b60f8161c191681555b5050505050600190811b01905550565b604081528360408201528385606083013760006060858301015260007fffffffffffffffffffffffffffffffffffffffffffffffffffffffffffffffe0601f860116820160608382030160208401528360608201527f07ffffffffffffffffffffffffffffffffffffffffffffffffffffffffffffff841115611b9c57600080fd5b8360051b80866080840137016080019695505050505050565b600060208284031215611bc757600080fd5b81518015158114610c9357600080fd5b7f4e487b7100000000000000000000000000000000000000000000000000000000600052601160045260246000fd5b818103818111156112d9576112d9611bd7565b60008085851115611c2957600080fd5b83861115611c3657600080fd5b5050600583901b0193919092039150565b7f4e487b7100000000000000000000000000000000000000000000000000000000600052603260045260246000fd5b60007fffffffffffffffffffffffffffffffffffffffffffffffffffffffffffffffff8203611ca757611ca7611bd7565b5060010190565b6000815480845260208085019450836000528060002060005b8381101561165257815487529582019560019182019101611cc7565b604081526000808454611cf58161195e565b8060408601526060600180841660008114611d175760018114611d4f57611d80565b7fffffffffffffffffffffffffffffffffffffffffffffffffffffffffffffff008516838901528284151560051b8901019550611d80565b8960005260208060002060005b86811015611d775781548b8201870152908401908201611d5c565b8a018501975050505b505050505082810360208401526118788185611cae56fea2646970667358221220fc71cf9f86727a5b71ee7d0fae6bfcc417acb8412a3c0b4ecf3452510616c51964736f6c63430008120033",
  "linkReferences": {},
  "deployedLinkReferences": {}
}